{
  "address": "0x34Fe794F3B64509f2556184098A149d50FB40155",
  "abi": [
    {
      "inputs": [],
      "stateMutability": "nonpayable",
      "type": "constructor"
    },
    {
      "inputs": [
        {
          "internalType": "address",
          "name": "target",
          "type": "address"
        }
      ],
      "name": "AddressEmptyCode",
      "type": "error"
    },
    {
      "inputs": [
        {
          "internalType": "address",
          "name": "implementation",
          "type": "address"
        }
      ],
      "name": "ERC1967InvalidImplementation",
      "type": "error"
    },
    {
      "inputs": [],
      "name": "ERC1967NonPayable",
      "type": "error"
    },
    {
      "inputs": [
        {
          "internalType": "address",
          "name": "spender",
          "type": "address"
        },
        {
          "internalType": "uint256",
          "name": "allowance",
          "type": "uint256"
        },
        {
          "internalType": "uint256",
          "name": "needed",
          "type": "uint256"
        }
      ],
      "name": "ERC20InsufficientAllowance",
      "type": "error"
    },
    {
      "inputs": [
        {
          "internalType": "address",
          "name": "sender",
          "type": "address"
        },
        {
          "internalType": "uint256",
          "name": "balance",
          "type": "uint256"
        },
        {
          "internalType": "uint256",
          "name": "needed",
          "type": "uint256"
        }
      ],
      "name": "ERC20InsufficientBalance",
      "type": "error"
    },
    {
      "inputs": [
        {
          "internalType": "address",
          "name": "approver",
          "type": "address"
        }
      ],
      "name": "ERC20InvalidApprover",
      "type": "error"
    },
    {
      "inputs": [
        {
          "internalType": "address",
          "name": "receiver",
          "type": "address"
        }
      ],
      "name": "ERC20InvalidReceiver",
      "type": "error"
    },
    {
      "inputs": [
        {
          "internalType": "address",
          "name": "sender",
          "type": "address"
        }
      ],
      "name": "ERC20InvalidSender",
      "type": "error"
    },
    {
      "inputs": [
        {
          "internalType": "address",
          "name": "spender",
          "type": "address"
        }
      ],
      "name": "ERC20InvalidSpender",
      "type": "error"
    },
    {
      "inputs": [],
      "name": "EnforcedPause",
      "type": "error"
    },
    {
      "inputs": [],
      "name": "ExpectedPause",
      "type": "error"
    },
    {
      "inputs": [],
      "name": "FailedCall",
      "type": "error"
    },
    {
      "inputs": [],
      "name": "InvalidInitialization",
      "type": "error"
    },
    {
      "inputs": [],
      "name": "NotInitializing",
      "type": "error"
    },
    {
      "inputs": [
        {
          "internalType": "address",
          "name": "owner",
          "type": "address"
        }
      ],
      "name": "OwnableInvalidOwner",
      "type": "error"
    },
    {
      "inputs": [
        {
          "internalType": "address",
          "name": "account",
          "type": "address"
        }
      ],
      "name": "OwnableUnauthorizedAccount",
      "type": "error"
    },
    {
      "inputs": [],
      "name": "ReentrancyGuardReentrantCall",
      "type": "error"
    },
    {
      "inputs": [],
      "name": "UUPSUnauthorizedCallContext",
      "type": "error"
    },
    {
      "inputs": [
        {
          "internalType": "bytes32",
          "name": "slot",
          "type": "bytes32"
        }
      ],
      "name": "UUPSUnsupportedProxiableUUID",
      "type": "error"
    },
    {
      "anonymous": false,
      "inputs": [
        {
          "indexed": true,
          "internalType": "address",
          "name": "owner",
          "type": "address"
        },
        {
          "indexed": true,
          "internalType": "address",
          "name": "spender",
          "type": "address"
        },
        {
          "indexed": false,
          "internalType": "uint256",
          "name": "value",
          "type": "uint256"
        }
      ],
      "name": "Approval",
      "type": "event"
    },
    {
      "anonymous": false,
      "inputs": [
        {
          "indexed": true,
          "internalType": "address",
          "name": "token",
          "type": "address"
        },
        {
          "indexed": true,
          "internalType": "address",
          "name": "to",
          "type": "address"
        },
        {
          "indexed": false,
          "internalType": "uint256",
          "name": "amount",
          "type": "uint256"
        }
      ],
      "name": "EmergencyWithdraw",
      "type": "event"
    },
    {
      "anonymous": false,
      "inputs": [
        {
          "indexed": false,
          "internalType": "uint64",
          "name": "version",
          "type": "uint64"
        }
      ],
      "name": "Initialized",
      "type": "event"
    },
    {
      "anonymous": false,
      "inputs": [
        {
          "indexed": true,
          "internalType": "address",
          "name": "previousOwner",
          "type": "address"
        },
        {
          "indexed": true,
          "internalType": "address",
          "name": "newOwner",
          "type": "address"
        }
      ],
      "name": "OwnershipTransferred",
      "type": "event"
    },
    {
      "anonymous": false,
      "inputs": [
        {
          "indexed": true,
          "internalType": "string",
          "name": "parameter",
          "type": "string"
        },
        {
          "indexed": false,
          "internalType": "uint256",
          "name": "oldValue",
          "type": "uint256"
        },
        {
          "indexed": false,
          "internalType": "uint256",
          "name": "newValue",
          "type": "uint256"
        }
      ],
      "name": "ParameterUpdated",
      "type": "event"
    },
    {
      "anonymous": false,
      "inputs": [
        {
          "indexed": false,
          "internalType": "address",
          "name": "account",
          "type": "address"
        }
      ],
      "name": "Paused",
      "type": "event"
    },
    {
      "anonymous": false,
      "inputs": [
        {
          "indexed": true,
          "internalType": "address",
          "name": "buyer",
          "type": "address"
        },
        {
          "indexed": false,
          "internalType": "uint256",
          "name": "usdtAmount",
          "type": "uint256"
        },
        {
          "indexed": false,
          "internalType": "uint256",
          "name": "tokenAmount",
          "type": "uint256"
        },
        {
          "indexed": false,
          "internalType": "uint256",
          "name": "price",
          "type": "uint256"
        }
      ],
      "name": "TokenPurchased",
      "type": "event"
    },
    {
      "anonymous": false,
      "inputs": [
        {
          "indexed": true,
          "internalType": "address",
          "name": "seller",
          "type": "address"
        },
        {
          "indexed": false,
          "internalType": "uint256",
          "name": "tokenAmount",
          "type": "uint256"
        },
        {
          "indexed": false,
          "internalType": "uint256",
          "name": "usdtAmount",
          "type": "uint256"
        },
        {
          "indexed": false,
          "internalType": "uint256",
          "name": "price",
          "type": "uint256"
        }
      ],
      "name": "TokenSold",
      "type": "event"
    },
    {
      "anonymous": false,
      "inputs": [
        {
          "indexed": true,
          "internalType": "address",
          "name": "from",
          "type": "address"
        },
        {
          "indexed": true,
          "internalType": "address",
          "name": "to",
          "type": "address"
        },
        {
          "indexed": false,
          "internalType": "uint256",
          "name": "value",
          "type": "uint256"
        }
      ],
      "name": "Transfer",
      "type": "event"
    },
    {
      "anonymous": false,
      "inputs": [
        {
          "indexed": false,
          "internalType": "address",
          "name": "account",
          "type": "address"
        }
      ],
      "name": "Unpaused",
      "type": "event"
    },
    {
      "anonymous": false,
      "inputs": [
        {
          "indexed": true,
          "internalType": "address",
          "name": "implementation",
          "type": "address"
        }
      ],
      "name": "Upgraded",
      "type": "event"
    },
    {
      "inputs": [],
      "name": "UPGRADE_INTERFACE_VERSION",
      "outputs": [
        {
          "internalType": "string",
          "name": "",
          "type": "string"
        }
      ],
      "stateMutability": "view",
      "type": "function"
    },
    {
      "inputs": [
        {
          "internalType": "address",
          "name": "owner",
          "type": "address"
        },
        {
          "internalType": "address",
          "name": "spender",
          "type": "address"
        }
      ],
      "name": "allowance",
      "outputs": [
        {
          "internalType": "uint256",
          "name": "",
          "type": "uint256"
        }
      ],
      "stateMutability": "view",
      "type": "function"
    },
    {
      "inputs": [
        {
          "internalType": "address",
          "name": "spender",
          "type": "address"
        },
        {
          "internalType": "uint256",
          "name": "value",
          "type": "uint256"
        }
      ],
      "name": "approve",
      "outputs": [
        {
          "internalType": "bool",
          "name": "",
          "type": "bool"
        }
      ],
      "stateMutability": "nonpayable",
      "type": "function"
    },
    {
      "inputs": [
        {
          "internalType": "address",
          "name": "account",
          "type": "address"
        }
      ],
      "name": "balanceOf",
      "outputs": [
        {
          "internalType": "uint256",
          "name": "",
          "type": "uint256"
        }
      ],
      "stateMutability": "view",
      "type": "function"
    },
    {
      "inputs": [
        {
          "internalType": "uint256",
          "name": "usdtAmount",
          "type": "uint256"
        },
        {
          "internalType": "uint256",
          "name": "minTokenAmount",
          "type": "uint256"
        },
        {
          "internalType": "bytes[]",
          "name": "updateData",
          "type": "bytes[]"
        }
      ],
      "name": "buy",
      "outputs": [],
      "stateMutability": "payable",
      "type": "function"
    },
    {
      "inputs": [],
      "name": "decimals",
      "outputs": [
        {
          "internalType": "uint8",
          "name": "",
          "type": "uint8"
        }
      ],
      "stateMutability": "view",
      "type": "function"
    },
    {
      "inputs": [
        {
          "internalType": "uint256",
          "name": "amount",
          "type": "uint256"
        }
      ],
      "name": "emergencyWithdrawToken",
      "outputs": [],
      "stateMutability": "nonpayable",
      "type": "function"
    },
    {
      "inputs": [
        {
          "internalType": "uint256",
          "name": "amount",
          "type": "uint256"
        }
      ],
      "name": "emergencyWithdrawUSDT",
      "outputs": [],
      "stateMutability": "nonpayable",
      "type": "function"
    },
    {
      "inputs": [],
      "name": "feeReceiver",
      "outputs": [
        {
          "internalType": "address",
          "name": "",
          "type": "address"
        }
      ],
      "stateMutability": "view",
      "type": "function"
    },
    {
      "inputs": [
        {
          "internalType": "uint256",
          "name": "usdtAmount",
          "type": "uint256"
        }
      ],
      "name": "getBuyEstimate",
      "outputs": [
        {
          "internalType": "uint256",
          "name": "tokenAmount",
          "type": "uint256"
        },
        {
          "internalType": "uint256",
          "name": "feeAmount",
          "type": "uint256"
        }
      ],
      "stateMutability": "view",
      "type": "function"
    },
    {
      "inputs": [],
      "name": "getContractTokenBalance",
      "outputs": [
        {
          "internalType": "uint256",
          "name": "",
          "type": "uint256"
        }
      ],
      "stateMutability": "view",
      "type": "function"
    },
    {
      "inputs": [],
      "name": "getContractUSDTBalance",
      "outputs": [
        {
          "internalType": "uint256",
          "name": "",
          "type": "uint256"
        }
      ],
      "stateMutability": "view",
      "type": "function"
    },
    {
      "inputs": [
        {
          "internalType": "uint256",
          "name": "tokenAmount",
          "type": "uint256"
        }
      ],
      "name": "getSellEstimate",
      "outputs": [
        {
          "internalType": "uint256",
          "name": "usdtAmount",
          "type": "uint256"
        },
        {
          "internalType": "uint256",
          "name": "feeAmount",
          "type": "uint256"
        }
      ],
      "stateMutability": "view",
      "type": "function"
    },
    {
      "inputs": [],
      "name": "getStockPrice",
      "outputs": [
        {
          "internalType": "uint256",
          "name": "",
          "type": "uint256"
        }
      ],
      "stateMutability": "view",
      "type": "function"
    },
    {
      "inputs": [],
      "name": "getTradingInfo",
      "outputs": [
        {
          "internalType": "uint256",
          "name": "_minTradeAmount",
          "type": "uint256"
        },
        {
          "internalType": "uint256",
          "name": "_maxSlippage",
          "type": "uint256"
        },
        {
          "internalType": "uint256",
          "name": "_tradeFeeRate",
          "type": "uint256"
        },
        {
          "internalType": "address",
          "name": "_feeReceiver",
          "type": "address"
        },
        {
          "internalType": "bool",
          "name": "_paused",
          "type": "bool"
        }
      ],
      "stateMutability": "view",
      "type": "function"
    },
    {
      "inputs": [
        {
          "internalType": "string",
          "name": "name_",
          "type": "string"
        },
        {
          "internalType": "string",
          "name": "symbol_",
          "type": "string"
        },
        {
          "internalType": "uint256",
          "name": "initialSupply_",
          "type": "uint256"
        },
        {
          "internalType": "address",
          "name": "owner_",
          "type": "address"
        },
        {
          "internalType": "address",
          "name": "oracleAggregator_",
          "type": "address"
        },
        {
          "internalType": "address",
          "name": "usdtToken_",
          "type": "address"
        }
      ],
      "name": "initialize",
      "outputs": [],
      "stateMutability": "nonpayable",
      "type": "function"
    },
    {
      "inputs": [
        {
          "internalType": "uint256",
          "name": "amount",
          "type": "uint256"
        }
      ],
      "name": "injectTokens",
      "outputs": [],
      "stateMutability": "nonpayable",
      "type": "function"
    },
    {
      "inputs": [],
      "name": "maxSlippage",
      "outputs": [
        {
          "internalType": "uint256",
          "name": "",
          "type": "uint256"
        }
      ],
      "stateMutability": "view",
      "type": "function"
    },
    {
      "inputs": [],
      "name": "minTradeAmount",
      "outputs": [
        {
          "internalType": "uint256",
          "name": "",
          "type": "uint256"
        }
      ],
      "stateMutability": "view",
      "type": "function"
    },
    {
      "inputs": [
        {
          "internalType": "uint256",
          "name": "amount",
          "type": "uint256"
        }
      ],
      "name": "mint",
      "outputs": [],
      "stateMutability": "nonpayable",
      "type": "function"
    },
    {
      "inputs": [],
      "name": "name",
      "outputs": [
        {
          "internalType": "string",
          "name": "",
          "type": "string"
        }
      ],
      "stateMutability": "view",
      "type": "function"
    },
    {
      "inputs": [],
      "name": "oracleAggregator",
      "outputs": [
        {
          "internalType": "contract OracleAggregator",
          "name": "",
          "type": "address"
        }
      ],
      "stateMutability": "view",
      "type": "function"
    },
    {
      "inputs": [],
      "name": "owner",
      "outputs": [
        {
          "internalType": "address",
          "name": "",
          "type": "address"
        }
      ],
      "stateMutability": "view",
      "type": "function"
    },
    {
      "inputs": [],
      "name": "pause",
      "outputs": [],
      "stateMutability": "nonpayable",
      "type": "function"
    },
    {
      "inputs": [],
      "name": "paused",
      "outputs": [
        {
          "internalType": "bool",
          "name": "",
          "type": "bool"
        }
      ],
      "stateMutability": "view",
      "type": "function"
    },
    {
      "inputs": [],
      "name": "proxiableUUID",
      "outputs": [
        {
          "internalType": "bytes32",
          "name": "",
          "type": "bytes32"
        }
      ],
      "stateMutability": "view",
      "type": "function"
    },
    {
      "inputs": [],
      "name": "renounceOwnership",
      "outputs": [],
      "stateMutability": "nonpayable",
      "type": "function"
    },
    {
      "inputs": [
        {
          "internalType": "uint256",
          "name": "tokenAmount",
          "type": "uint256"
        },
        {
          "internalType": "uint256",
          "name": "minUsdtAmount",
          "type": "uint256"
        },
        {
          "internalType": "bytes[]",
          "name": "updateData",
          "type": "bytes[]"
        }
      ],
      "name": "sell",
      "outputs": [],
      "stateMutability": "payable",
      "type": "function"
    },
    {
      "inputs": [
        {
          "internalType": "address",
          "name": "_feeReceiver",
          "type": "address"
        }
      ],
      "name": "setFeeReceiver",
      "outputs": [],
      "stateMutability": "nonpayable",
      "type": "function"
    },
    {
      "inputs": [
        {
          "internalType": "uint256",
          "name": "_minTradeAmount",
          "type": "uint256"
        },
        {
          "internalType": "uint256",
          "name": "_maxSlippage",
          "type": "uint256"
        },
        {
          "internalType": "uint256",
          "name": "_tradeFeeRate",
          "type": "uint256"
        }
      ],
      "name": "setTradeParameters",
      "outputs": [],
      "stateMutability": "nonpayable",
      "type": "function"
    },
    {
      "inputs": [],
      "name": "stockSymbol",
      "outputs": [
        {
          "internalType": "string",
          "name": "",
          "type": "string"
        }
      ],
      "stateMutability": "view",
      "type": "function"
    },
    {
      "inputs": [],
      "name": "symbol",
      "outputs": [
        {
          "internalType": "string",
          "name": "",
          "type": "string"
        }
      ],
      "stateMutability": "view",
      "type": "function"
    },
    {
      "inputs": [],
      "name": "totalSupply",
      "outputs": [
        {
          "internalType": "uint256",
          "name": "",
          "type": "uint256"
        }
      ],
      "stateMutability": "view",
      "type": "function"
    },
    {
      "inputs": [],
      "name": "tradeFeeRate",
      "outputs": [
        {
          "internalType": "uint256",
          "name": "",
          "type": "uint256"
        }
      ],
      "stateMutability": "view",
      "type": "function"
    },
    {
      "inputs": [
        {
          "internalType": "address",
          "name": "to",
          "type": "address"
        },
        {
          "internalType": "uint256",
          "name": "value",
          "type": "uint256"
        }
      ],
      "name": "transfer",
      "outputs": [
        {
          "internalType": "bool",
          "name": "",
          "type": "bool"
        }
      ],
      "stateMutability": "nonpayable",
      "type": "function"
    },
    {
      "inputs": [
        {
          "internalType": "address",
          "name": "from",
          "type": "address"
        },
        {
          "internalType": "address",
          "name": "to",
          "type": "address"
        },
        {
          "internalType": "uint256",
          "name": "value",
          "type": "uint256"
        }
      ],
      "name": "transferFrom",
      "outputs": [
        {
          "internalType": "bool",
          "name": "",
          "type": "bool"
        }
      ],
      "stateMutability": "nonpayable",
      "type": "function"
    },
    {
      "inputs": [
        {
          "internalType": "address",
          "name": "newOwner",
          "type": "address"
        }
      ],
      "name": "transferOwnership",
      "outputs": [],
      "stateMutability": "nonpayable",
      "type": "function"
    },
    {
      "inputs": [],
      "name": "unpause",
      "outputs": [],
      "stateMutability": "nonpayable",
      "type": "function"
    },
    {
      "inputs": [
        {
          "internalType": "bytes[]",
          "name": "updateData",
          "type": "bytes[]"
        }
      ],
      "name": "updateAndGetStockPrice",
      "outputs": [
        {
          "internalType": "uint256",
          "name": "price",
          "type": "uint256"
        },
        {
          "internalType": "uint256",
          "name": "minPrice",
          "type": "uint256"
        },
        {
          "internalType": "uint256",
          "name": "maxPrice",
          "type": "uint256"
        },
        {
          "internalType": "uint256",
          "name": "publishTime",
          "type": "uint256"
        }
      ],
      "stateMutability": "payable",
      "type": "function"
    },
    {
      "inputs": [
        {
          "internalType": "address",
          "name": "newImplementation",
          "type": "address"
        },
        {
          "internalType": "bytes",
          "name": "data",
          "type": "bytes"
        }
      ],
      "name": "upgradeToAndCall",
      "outputs": [],
      "stateMutability": "payable",
      "type": "function"
    },
    {
      "inputs": [],
      "name": "usdtToken",
      "outputs": [
        {
          "internalType": "contract IERC20",
          "name": "",
          "type": "address"
        }
      ],
      "stateMutability": "view",
      "type": "function"
    }
  ],
  "transactionHash": "0xa53110c7f4e0aef0ff7bf98724f1cdb1af9fda79d471d9d4c369bd67e57c3423",
  "args": [],
  "numDeployments": 1,
  "solcInputHash": "d27bd645ed95b2a25e0c5504903a8c5a",
  "bytecode": "0x60a0604052306080523480156200001557600080fd5b506200002062000026565b620000da565b7ff0c57e16840df040f15088dc2f81fe391c3923bec73e23a9662efc9c229c6a00805468010000000000000000900460ff1615620000775760405163f92ee8a960e01b815260040160405180910390fd5b80546001600160401b0390811614620000d75780546001600160401b0319166001600160401b0390811782556040519081527fc7f505b2f371ae2175ee4913f4499e1f2633a7b5936321eed1cdaeb6115181d29060200160405180910390a15b50565b608051612f306200010460003960008181611e5801528181611e810152611fc20152612f306000f3fe6080604052600436106102465760003560e01c80638da5cb5b11610139578063c3a77c97116100b6578063dd62ed3e1161007a578063dd62ed3e146106cf578063dda9046f146106ef578063ddb621db14610705578063e6c424171461071a578063efdcd9741461072d578063f2fde38b1461074d57600080fd5b8063c3a77c9714610652578063c87cbe5614610665578063c8f760401461067a578063d74712a41461068f578063d8c08b4a146106af57600080fd5b8063a9059cbb116100fd578063a9059cbb1461058e578063a98ad46c146105ae578063ad3cb1cc146105ce578063b3f00674146105ff578063be9a05e61461061f57600080fd5b80638da5cb5b146104d75780638dc823dc146105045780638dffe3f41461053957806395d89b4114610559578063a0712d681461056e57600080fd5b80633f4ba83a116101c75780636ef7626c1161018b5780636ef7626c1461045757806370a0823114610477578063715018a6146104975780638456cb59146104ac5780638c04166f146104c157600080fd5b80633f4ba83a146103df5780634f1ef286146103f457806352d1902d146104075780635c975abb1461041c5780636b04b9cf1461044157600080fd5b806323b872dd1161020e57806323b872dd14610326578063276ef789146103465780632b3b06931461038e578063313ce567146103ae578063317d9453146103ca57600080fd5b806306fdde031461024b578063095ea7b31461027657806313b24378146102a657806318160ddd146102c85780631d7fa77f14610306575b600080fd5b34801561025757600080fd5b5061026061076d565b60405161026d91906126e3565b60405180910390f35b34801561028257600080fd5b50610296610291366004612732565b610830565b604051901515815260200161026d565b3480156102b257600080fd5b506102c66102c136600461275c565b61084a565b005b3480156102d457600080fd5b507f52c63247e1f47db19d5ce0460030c497f067ca4cebf71ba98eeadabe20bace02545b60405190815260200161026d565b34801561031257600080fd5b506102c6610321366004612788565b610a05565b34801561033257600080fd5b506102966103413660046127a1565b610bd9565b34801561035257600080fd5b5061035b610bff565b604080519586526020860194909452928401919091526001600160a01b031660608301521515608082015260a00161026d565b34801561039a57600080fd5b506102c66103a9366004612788565b610c50565b3480156103ba57600080fd5b506040516012815260200161026d565b3480156103d657600080fd5b506102f8610cc7565b3480156103eb57600080fd5b506102c6610cd7565b6102c6610402366004612869565b610ce9565b34801561041357600080fd5b506102f8610d08565b34801561042857600080fd5b50600080516020612edb8339815191525460ff16610296565b34801561044d57600080fd5b506102f860055481565b34801561046357600080fd5b506102c66104723660046128eb565b610d25565b34801561048357600080fd5b506102f8610492366004612989565b610eae565b3480156104a357600080fd5b506102c6610ed6565b3480156104b857600080fd5b506102c6610ee8565b3480156104cd57600080fd5b506102f860045481565b3480156104e357600080fd5b506104ec610ef8565b6040516001600160a01b03909116815260200161026d565b34801561051057600080fd5b5061052461051f366004612788565b610f26565b6040805192835260208301919091520161026d565b34801561054557600080fd5b506000546104ec906001600160a01b031681565b34801561056557600080fd5b50610260611018565b34801561057a57600080fd5b506102c6610589366004612788565b611057565b34801561059a57600080fd5b506102966105a9366004612732565b611070565b3480156105ba57600080fd5b506001546104ec906001600160a01b031681565b3480156105da57600080fd5b50610260604051806040016040528060058152602001640352e302e360dc1b81525081565b34801561060b57600080fd5b506006546104ec906001600160a01b031681565b61063261062d3660046129f0565b61107e565b60408051948552602085019390935291830152606082015260800161026d565b6102c6610660366004612a32565b61110d565b34801561067157600080fd5b50610260611453565b34801561068657600080fd5b506102f86114e1565b34801561069b57600080fd5b506102c66106aa366004612788565b61154e565b3480156106bb57600080fd5b506105246106ca366004612788565b611603565b3480156106db57600080fd5b506102f86106ea366004612a85565b6116b9565b3480156106fb57600080fd5b506102f860035481565b34801561071157600080fd5b506102f8611703565b6102c6610728366004612a32565b611780565b34801561073957600080fd5b506102c6610748366004612989565b611c37565b34801561075957600080fd5b506102c6610768366004612989565b611cae565b7f52c63247e1f47db19d5ce0460030c497f067ca4cebf71ba98eeadabe20bace038054606091600080516020612e9b833981519152916107ac90612ab8565b80601f01602080910402602001604051908101604052809291908181526020018280546107d890612ab8565b80156108255780601f106107fa57610100808354040283529160200191610825565b820191906000526020600020905b81548152906001019060200180831161080857829003601f168201915b505050505091505090565b60003361083e818585611ce9565b60019150505b92915050565b610852611cfb565b6103e88211156108a15760405162461bcd60e51b815260206004820152601560248201527409ac2f040e6d8d2e0e0c2ceca40e8dede40d0d2ced605b1b60448201526064015b60405180910390fd5b6103e88111156108e85760405162461bcd60e51b81526020600482015260126024820152710a8e4c2c8ca40cccaca40e8dede40d0d2ced60731b6044820152606401610898565b6040516d1b5a5b951c985919505b5bdd5b9d60921b8152600e0160408051918290038220600354835260208301869052917f185daf617c465de5e0042f7aae1503b1a216ea8927cacf296e58b516e82afea8910160405180910390a26040516a6d6178536c69707061676560a81b8152600b0160408051918290038220600454835260208301859052917f185daf617c465de5e0042f7aae1503b1a216ea8927cacf296e58b516e82afea8910160405180910390a26040516b74726164654665655261746560a01b8152600c0160408051918290038220600554835260208301849052917f185daf617c465de5e0042f7aae1503b1a216ea8927cacf296e58b516e82afea8910160405180910390a2600392909255600455600555565b610a0d611cfb565b6001546040516370a0823160e01b81523060048201526001600160a01b03909116906370a0823190602401602060405180830381865afa158015610a55573d6000803e3d6000fd5b505050506040513d601f19601f82011682018060405250810190610a799190612af2565b811115610abf5760405162461bcd60e51b8152602060048201526014602482015273496e73756666696369656e742062616c616e636560601b6044820152606401610898565b6001546001600160a01b031663a9059cbb610ad8610ef8565b6040516001600160e01b031960e084901b1681526001600160a01b039091166004820152602481018490526044016020604051808303816000875af1158015610b25573d6000803e3d6000fd5b505050506040513d601f19601f82011682018060405250810190610b499190612b0b565b610b875760405162461bcd60e51b815260206004820152600f60248201526e151c985b9cd9995c8819985a5b1959608a1b6044820152606401610898565b610b8f610ef8565b6001546040518381526001600160a01b0392831692909116907ff24ef89f38eadc1bde50701ad6e4d6d11a2dc24f7cf834a486991f3883328504906020015b60405180910390a350565b600033610be7858285611d2d565b610bf2858585611d8e565b60019150505b9392505050565b6000806000806000600354600454600554600660009054906101000a90046001600160a01b0316610c3f600080516020612edb8339815191525460ff1690565b945094509450945094509091929394565b610c58611cfb565b80610c64610492610ef8565b1015610cb25760405162461bcd60e51b815260206004820152601a60248201527f496e73756666696369656e74206f776e65722062616c616e63650000000000006044820152606401610898565b610cc4610cbd610ef8565b3083611d8e565b50565b6000610cd230610eae565b905090565b610cdf611cfb565b610ce7611ded565b565b610cf1611e4d565b610cfa82611ef2565b610d048282611efa565b5050565b6000610d12611fb7565b50600080516020612ebb83398151915290565b6000610d2f612000565b805490915060ff600160401b820416159067ffffffffffffffff16600081158015610d575750825b905060008267ffffffffffffffff166001148015610d745750303b155b905081158015610d82575080155b15610da05760405163f92ee8a960e01b815260040160405180910390fd5b845467ffffffffffffffff191660011785558315610dca57845460ff60401b1916600160401b1785555b610dd48b8b612029565b610ddd8861203b565b610de561204c565b610ded61204c565b610df5612054565b6002610e018b82612b7d565b50600080546001600160a01b03808a166001600160a01b0319928316179092556001805489841690831617905560068054928b1692909116919091179055620f424060035561012c600455601e600555610e5b888a612064565b8315610ea157845460ff60401b19168555604051600181527fc7f505b2f371ae2175ee4913f4499e1f2633a7b5936321eed1cdaeb6115181d29060200160405180910390a15b5050505050505050505050565b6001600160a01b03166000908152600080516020612e9b833981519152602052604090205490565b610ede611cfb565b610ce7600061209a565b610ef0611cfb565b610ce761210b565b7f9016d09d72d40fdae2fd8ceac6b6234c7706214fd39c1cd1e609a0528c199300546001600160a01b031690565b6000805460405163524f388960e01b8152829182916001600160a01b039091169063524f388990610f5c90600290600401612cba565b608060405180830381865afa158015610f79573d6000803e3d6000fd5b505050506040513d601f19601f82011682018060405250810190610f9d9190612ccd565b505050905060008111610fc25760405162461bcd60e51b815260040161089890612d03565b600081610fdc866c0c9f2c9cd04674edea40000000612d46565b610fe69190612d5d565b905061271060055482610ff99190612d46565b6110039190612d5d565b925061100f8382612d7f565b93505050915091565b7f52c63247e1f47db19d5ce0460030c497f067ca4cebf71ba98eeadabe20bace048054606091600080516020612e9b833981519152916107ac90612ab8565b61105f611cfb565b610cc461106a610ef8565b82612064565b60003361083e818585611d8e565b60008054604051630c8131a960e31b81528291829182916001600160a01b0316906364098d489034906110ba906002908b908b90600401612dbb565b60806040518083038185885af11580156110d8573d6000803e3d6000fd5b50505050506040513d601f19601f820116820180604052508101906110fd9190612ccd565b9299919850965090945092505050565b611115612154565b61111d61219e565b6003548410156111665760405162461bcd60e51b8152602060048201526014602482015273416d6f756e742062656c6f77206d696e696d756d60601b6044820152606401610898565b60008054604051630c8131a960e31b81526001600160a01b03909116906364098d4890349061119e9060029088908890600401612dbb565b60806040518083038185885af11580156111bc573d6000803e3d6000fd5b50505050506040513d601f19601f820116820180604052508101906111e19190612ccd565b5050509050600081116112065760405162461bcd60e51b815260040161089890612d03565b600081611220876c0c9f2c9cd04674edea40000000612d46565b61122a9190612d5d565b905060006127106005548361123f9190612d46565b6112499190612d5d565b905060006112578284612d7f565b90508681101561129d5760405162461bcd60e51b81526020600482015260116024820152700a6d8d2e0e0c2ceca40e8dede40d0d2ced607b1b6044820152606401610898565b806112a730610eae565b10156112f55760405162461bcd60e51b815260206004820152601960248201527f496e73756666696369656e7420746f6b656e20737570706c79000000000000006044820152606401610898565b6001546040516323b872dd60e01b8152336004820152306024820152604481018a90526001600160a01b03909116906323b872dd906064016020604051808303816000875af115801561134c573d6000803e3d6000fd5b505050506040513d601f19601f820116820180604052508101906113709190612b0b565b6113b35760405162461bcd60e51b81526020600482015260146024820152731554d115081d1c985b9cd9995c8819985a5b195960621b6044820152606401610898565b6113be303383611d8e565b81156113dc576006546113dc9030906001600160a01b031684611d8e565b604080518981526020810183905290810185905233907f2b0c4dfbf2e34a2292e9110d6ea90d7c78f54b3aebe3974d2db7197308f21ff8906060015b60405180910390a25050505061144d60017f9b779b17422d0df92223018b32b4d1fa46e071723d6817e2486d003becc55f0055565b50505050565b6002805461146090612ab8565b80601f016020809104026020016040519081016040528092919081815260200182805461148c90612ab8565b80156114d95780601f106114ae576101008083540402835291602001916114d9565b820191906000526020600020905b8154815290600101906020018083116114bc57829003601f168201915b505050505081565b6001546040516370a0823160e01b81523060048201526000916001600160a01b0316906370a0823190602401602060405180830381865afa15801561152a573d6000803e3d6000fd5b505050506040513d601f19601f82011682018060405250810190610cd29190612af2565b611556611cfb565b61155f30610eae565b8111156115a55760405162461bcd60e51b8152602060048201526014602482015273496e73756666696369656e742062616c616e636560601b6044820152606401610898565b6115b7306115b1610ef8565b83611d8e565b6115bf610ef8565b6001600160a01b0316306001600160a01b03167ff24ef89f38eadc1bde50701ad6e4d6d11a2dc24f7cf834a486991f388332850483604051610bce91815260200190565b6000805460405163524f388960e01b8152829182916001600160a01b039091169063524f38899061163990600290600401612cba565b608060405180830381865afa158015611656573d6000803e3d6000fd5b505050506040513d601f19601f8201168201806040525081019061167a9190612ccd565b50505090506000811161169f5760405162461bcd60e51b815260040161089890612d03565b60006c0c9f2c9cd04674edea40000000610fdc8387612d46565b6001600160a01b0391821660009081527f52c63247e1f47db19d5ce0460030c497f067ca4cebf71ba98eeadabe20bace016020908152604080832093909416825291909152205490565b6000805460405163524f388960e01b815282916001600160a01b03169063524f38899061173590600290600401612cba565b608060405180830381865afa158015611752573d6000803e3d6000fd5b505050506040513d601f19601f820116820180604052508101906117769190612ccd565b5091949350505050565b611788612154565b61179061219e565b600084116117d75760405162461bcd60e51b8152602060048201526014602482015273125b9d985b1a59081d1bdad95b88185b5bdd5b9d60621b6044820152606401610898565b836117e133610eae565b101561182f5760405162461bcd60e51b815260206004820152601a60248201527f496e73756666696369656e7420746f6b656e2062616c616e63650000000000006044820152606401610898565b60008054604051630c8131a960e31b81526001600160a01b03909116906364098d489034906118679060029088908890600401612dbb565b60806040518083038185885af1158015611885573d6000803e3d6000fd5b50505050506040513d601f19601f820116820180604052508101906118aa9190612ccd565b5050509050600081116118cf5760405162461bcd60e51b815260040161089890612d03565b60006c0c9f2c9cd04674edea400000006118e98388612d46565b6118f39190612d5d565b90506000612710600554836119089190612d46565b6119129190612d5d565b905060006119208284612d7f565b9050868110156119665760405162461bcd60e51b81526020600482015260116024820152700a6d8d2e0e0c2ceca40e8dede40d0d2ced607b1b6044820152606401610898565b6003548110156119af5760405162461bcd60e51b8152602060048201526014602482015273416d6f756e742062656c6f77206d696e696d756d60601b6044820152606401610898565b6119b98282612e6b565b6001546040516370a0823160e01b81523060048201526001600160a01b03909116906370a0823190602401602060405180830381865afa158015611a01573d6000803e3d6000fd5b505050506040513d601f19601f82011682018060405250810190611a259190612af2565b1015611a735760405162461bcd60e51b815260206004820152601d60248201527f496e73756666696369656e74205553445420696e20636f6e74726163740000006044820152606401610898565b611a7e33308a611d8e565b60015460405163a9059cbb60e01b8152336004820152602481018390526001600160a01b039091169063a9059cbb906044016020604051808303816000875af1158015611acf573d6000803e3d6000fd5b505050506040513d601f19601f82011682018060405250810190611af39190612b0b565b611b365760405162461bcd60e51b81526020600482015260146024820152731554d115081d1c985b9cd9995c8819985a5b195960621b6044820152606401610898565b8115611bf75760015460065460405163a9059cbb60e01b81526001600160a01b0391821660048201526024810185905291169063a9059cbb906044016020604051808303816000875af1158015611b91573d6000803e3d6000fd5b505050506040513d601f19601f82011682018060405250810190611bb59190612b0b565b611bf75760405162461bcd60e51b8152602060048201526013602482015272119959481d1c985b9cd9995c8819985a5b1959606a1b6044820152606401610898565b604080518981526020810183905290810185905233907f8323bebb324b6e1a1d4886a1f210640461bb275263dae69967f001d053ab0b2b90606001611418565b611c3f611cfb565b6001600160a01b038116611c8c5760405162461bcd60e51b815260206004820152601460248201527324b73b30b634b2103332b2903932b1b2b4bb32b960611b6044820152606401610898565b600680546001600160a01b0319166001600160a01b0392909216919091179055565b611cb6611cfb565b6001600160a01b038116611ce057604051631e4fbdf760e01b815260006004820152602401610898565b610cc48161209a565b611cf683838360016121f5565b505050565b33611d04610ef8565b6001600160a01b031614610ce75760405163118cdaa760e01b8152336004820152602401610898565b6000611d3984846116b9565b905060001981101561144d5781811015611d7f57604051637dc7a0d960e11b81526001600160a01b03841660048201526024810182905260448101839052606401610898565b61144d848484840360006121f5565b6001600160a01b038316611db857604051634b637e8f60e11b815260006004820152602401610898565b6001600160a01b038216611de25760405163ec442f0560e01b815260006004820152602401610898565b611cf68383836122dd565b611df561241b565b600080516020612edb833981519152805460ff191681557f5db9ee0a495bf2e6ff9c91a7834c1ba4fdd244a5e8aa4e537bd38aeae4b073aa335b6040516001600160a01b03909116815260200160405180910390a150565b306001600160a01b037f0000000000000000000000000000000000000000000000000000000000000000161480611ed457507f00000000000000000000000000000000000000000000000000000000000000006001600160a01b0316611ec8600080516020612ebb833981519152546001600160a01b031690565b6001600160a01b031614155b15610ce75760405163703e46dd60e11b815260040160405180910390fd5b610cc4611cfb565b816001600160a01b03166352d1902d6040518163ffffffff1660e01b8152600401602060405180830381865afa925050508015611f54575060408051601f3d908101601f19168201909252611f5191810190612af2565b60015b611f7c57604051634c9c8ce360e01b81526001600160a01b0383166004820152602401610898565b600080516020612ebb8339815191528114611fad57604051632a87526960e21b815260048101829052602401610898565b611cf6838361244b565b306001600160a01b037f00000000000000000000000000000000000000000000000000000000000000001614610ce75760405163703e46dd60e11b815260040160405180910390fd5b6000807ff0c57e16840df040f15088dc2f81fe391c3923bec73e23a9662efc9c229c6a00610844565b6120316124a1565b610d0482826124c6565b6120436124a1565b610cc481612517565b610ce76124a1565b61205c6124a1565b610ce761251f565b6001600160a01b03821661208e5760405163ec442f0560e01b815260006004820152602401610898565b610d04600083836122dd565b7f9016d09d72d40fdae2fd8ceac6b6234c7706214fd39c1cd1e609a0528c19930080546001600160a01b031981166001600160a01b03848116918217845560405192169182907f8be0079c531659141344cd1fd0a4f28419497f9722a3daafe3b4186f6b6457e090600090a3505050565b61211361219e565b600080516020612edb833981519152805460ff191660011781557f62e78cea01bee320cd4e420270b5ea74000d11b0c9f74754ebdbfc544b05a25833611e2f565b7f9b779b17422d0df92223018b32b4d1fa46e071723d6817e2486d003becc55f0080546001190161219857604051633ee5aeb560e01b815260040160405180910390fd5b60029055565b600080516020612edb8339815191525460ff1615610ce75760405163d93c066560e01b815260040160405180910390fd5b60017f9b779b17422d0df92223018b32b4d1fa46e071723d6817e2486d003becc55f0055565b600080516020612e9b8339815191526001600160a01b03851661222e5760405163e602df0560e01b815260006004820152602401610898565b6001600160a01b03841661225857604051634a1406b160e11b815260006004820152602401610898565b6001600160a01b038086166000908152600183016020908152604080832093881683529290522083905581156122d657836001600160a01b0316856001600160a01b03167f8c5be1e5ebec7d5bd14f71427d1e84f3dd0314c0f7b2291e5b200ac8c7c3b925856040516122cd91815260200190565b60405180910390a35b5050505050565b600080516020612e9b8339815191526001600160a01b038416612319578181600201600082825461230e9190612e6b565b9091555061238b9050565b6001600160a01b0384166000908152602082905260409020548281101561236c5760405163391434e360e21b81526001600160a01b03861660048201526024810182905260448101849052606401610898565b6001600160a01b03851660009081526020839052604090209083900390555b6001600160a01b0383166123a95760028101805483900390556123c8565b6001600160a01b03831660009081526020829052604090208054830190555b826001600160a01b0316846001600160a01b03167fddf252ad1be2c89b69c2b068fc378daa952ba7f163c4a11628f55a4df523b3ef8460405161240d91815260200190565b60405180910390a350505050565b600080516020612edb8339815191525460ff16610ce757604051638dfc202b60e01b815260040160405180910390fd5b61245482612527565b6040516001600160a01b038316907fbc7cd75a20ee27fd9adebab32041f755214dbc6bffa90cc0225b39da2e5c2d3b90600090a280511561249957611cf6828261258c565b610d04612602565b6124a9612621565b610ce757604051631afcd79f60e31b815260040160405180910390fd5b6124ce6124a1565b600080516020612e9b8339815191527f52c63247e1f47db19d5ce0460030c497f067ca4cebf71ba98eeadabe20bace036125088482612b7d565b506004810161144d8382612b7d565b611cb66124a1565b6121cf6124a1565b806001600160a01b03163b60000361255d57604051634c9c8ce360e01b81526001600160a01b0382166004820152602401610898565b600080516020612ebb83398151915280546001600160a01b0319166001600160a01b0392909216919091179055565b6060600080846001600160a01b0316846040516125a99190612e7e565b600060405180830381855af49150503d80600081146125e4576040519150601f19603f3d011682016040523d82523d6000602084013e6125e9565b606091505b50915091506125f985838361263b565b95945050505050565b3415610ce75760405163b398979f60e01b815260040160405180910390fd5b600061262b612000565b54600160401b900460ff16919050565b6060826126505761264b82612697565b610bf8565b815115801561266757506001600160a01b0384163b155b1561269057604051639996b31560e01b81526001600160a01b0385166004820152602401610898565b5080610bf8565b8051156126a657805160208201fd5b60405163d6bda27560e01b815260040160405180910390fd5b60005b838110156126da5781810151838201526020016126c2565b50506000910152565b60208152600082518060208401526127028160408501602087016126bf565b601f01601f19169190910160400192915050565b80356001600160a01b038116811461272d57600080fd5b919050565b6000806040838503121561274557600080fd5b61274e83612716565b946020939093013593505050565b60008060006060848603121561277157600080fd5b505081359360208301359350604090920135919050565b60006020828403121561279a57600080fd5b5035919050565b6000806000606084860312156127b657600080fd5b6127bf84612716565b92506127cd60208501612716565b9150604084013590509250925092565b634e487b7160e01b600052604160045260246000fd5b600067ffffffffffffffff8084111561280e5761280e6127dd565b604051601f8501601f19908116603f01168101908282118183101715612836576128366127dd565b8160405280935085815286868601111561284f57600080fd5b858560208301376000602087830101525050509392505050565b6000806040838503121561287c57600080fd5b61288583612716565b9150602083013567ffffffffffffffff8111156128a157600080fd5b8301601f810185136128b257600080fd5b6128c1858235602084016127f3565b9150509250929050565b600082601f8301126128dc57600080fd5b610bf8838335602085016127f3565b60008060008060008060c0878903121561290457600080fd5b863567ffffffffffffffff8082111561291c57600080fd5b6129288a838b016128cb565b9750602089013591508082111561293e57600080fd5b5061294b89828a016128cb565b9550506040870135935061296160608801612716565b925061296f60808801612716565b915061297d60a08801612716565b90509295509295509295565b60006020828403121561299b57600080fd5b610bf882612716565b60008083601f8401126129b657600080fd5b50813567ffffffffffffffff8111156129ce57600080fd5b6020830191508360208260051b85010111156129e957600080fd5b9250929050565b60008060208385031215612a0357600080fd5b823567ffffffffffffffff811115612a1a57600080fd5b612a26858286016129a4565b90969095509350505050565b60008060008060608587031215612a4857600080fd5b8435935060208501359250604085013567ffffffffffffffff811115612a6d57600080fd5b612a79878288016129a4565b95989497509550505050565b60008060408385031215612a9857600080fd5b612aa183612716565b9150612aaf60208401612716565b90509250929050565b600181811c90821680612acc57607f821691505b602082108103612aec57634e487b7160e01b600052602260045260246000fd5b50919050565b600060208284031215612b0457600080fd5b5051919050565b600060208284031215612b1d57600080fd5b81518015158114610bf857600080fd5b601f821115611cf6576000816000526020600020601f850160051c81016020861015612b565750805b601f850160051c820191505b81811015612b7557828155600101612b62565b505050505050565b815167ffffffffffffffff811115612b9757612b976127dd565b612bab81612ba58454612ab8565b84612b2d565b602080601f831160018114612be05760008415612bc85750858301515b600019600386901b1c1916600185901b178555612b75565b600085815260208120601f198616915b82811015612c0f57888601518255948401946001909101908401612bf0565b5085821015612c2d5787850151600019600388901b60f8161c191681555b5050505050600190811b01905550565b60008154612c4a81612ab8565b808552602060018381168015612c675760018114612c8157612caf565b60ff1985168884015283151560051b880183019550612caf565b866000528260002060005b85811015612ca75781548a8201860152908301908401612c8c565b890184019650505b505050505092915050565b602081526000610bf86020830184612c3d565b60008060008060808587031215612ce357600080fd5b505082516020840151604085015160609095015191969095509092509050565b602080825260139082015272496e76616c69642073746f636b20707269636560681b604082015260600190565b634e487b7160e01b600052601160045260246000fd5b808202811582820484141761084457610844612d30565b600082612d7a57634e487b7160e01b600052601260045260246000fd5b500490565b8181038181111561084457610844612d30565b81835281816020850137506000828201602090810191909152601f909101601f19169091010190565b604081526000612dce6040830186612c3d565b602083820381850152818583528183019050818660051b8401018760005b88811015612e5c57858303601f190184528135368b9003601e19018112612e1257600080fd5b8a01858101903567ffffffffffffffff811115612e2e57600080fd5b803603821315612e3d57600080fd5b612e48858284612d92565b958701959450505090840190600101612dec565b50909998505050505050505050565b8082018082111561084457610844612d30565b60008251612e908184602087016126bf565b919091019291505056fe52c63247e1f47db19d5ce0460030c497f067ca4cebf71ba98eeadabe20bace00360894a13ba1a3210667c828492db98dca3e2076cc3735a920a3ca505d382bbccd5ed15c6e187e77e9aee88184c21f4f2182ab5827cb3b7e07fbedcd63f03300a2646970667358221220d75f2fb07f270daf00e0ba89e9f44869fa04de5549716a9bec5467db16afc69a64736f6c63430008160033",
  "devdoc": {
    "details": "ERC20   1. owner 2.  3.  4.  5. ",
    "errors": {
      "AddressEmptyCode(address)": [
        {
          "details": "There's no code at `target` (it is not a contract)."
        }
      ],
      "ERC1967InvalidImplementation(address)": [
        {
          "details": "The `implementation` of the proxy is invalid."
        }
      ],
      "ERC1967NonPayable()": [
        {
          "details": "An upgrade function sees `msg.value > 0` that may be lost."
        }
      ],
      "ERC20InsufficientAllowance(address,uint256,uint256)": [
        {
          "details": "Indicates a failure with the `spender`s `allowance`. Used in transfers.",
          "params": {
            "allowance": "Amount of tokens a `spender` is allowed to operate with.",
            "needed": "Minimum amount required to perform a transfer.",
            "spender": "Address that may be allowed to operate on tokens without being their owner."
          }
        }
      ],
      "ERC20InsufficientBalance(address,uint256,uint256)": [
        {
          "details": "Indicates an error related to the current `balance` of a `sender`. Used in transfers.",
          "params": {
            "balance": "Current balance for the interacting account.",
            "needed": "Minimum amount required to perform a transfer.",
            "sender": "Address whose tokens are being transferred."
          }
        }
      ],
      "ERC20InvalidApprover(address)": [
        {
          "details": "Indicates a failure with the `approver` of a token to be approved. Used in approvals.",
          "params": {
            "approver": "Address initiating an approval operation."
          }
        }
      ],
      "ERC20InvalidReceiver(address)": [
        {
          "details": "Indicates a failure with the token `receiver`. Used in transfers.",
          "params": {
            "receiver": "Address to which tokens are being transferred."
          }
        }
      ],
      "ERC20InvalidSender(address)": [
        {
          "details": "Indicates a failure with the token `sender`. Used in transfers.",
          "params": {
            "sender": "Address whose tokens are being transferred."
          }
        }
      ],
      "ERC20InvalidSpender(address)": [
        {
          "details": "Indicates a failure with the `spender` to be approved. Used in approvals.",
          "params": {
            "spender": "Address that may be allowed to operate on tokens without being their owner."
          }
        }
      ],
      "EnforcedPause()": [
        {
          "details": "The operation failed because the contract is paused."
        }
      ],
      "ExpectedPause()": [
        {
          "details": "The operation failed because the contract is not paused."
        }
      ],
      "FailedCall()": [
        {
          "details": "A call to an address target failed. The target may have reverted."
        }
      ],
      "InvalidInitialization()": [
        {
          "details": "The contract is already initialized."
        }
      ],
      "NotInitializing()": [
        {
          "details": "The contract is not initializing."
        }
      ],
      "OwnableInvalidOwner(address)": [
        {
          "details": "The owner is not a valid owner account. (eg. `address(0)`)"
        }
      ],
      "OwnableUnauthorizedAccount(address)": [
        {
          "details": "The caller account is not authorized to perform an operation."
        }
      ],
      "ReentrancyGuardReentrantCall()": [
        {
          "details": "Unauthorized reentrant call."
        }
      ],
      "UUPSUnauthorizedCallContext()": [
        {
          "details": "The call is from an unauthorized context."
        }
      ],
      "UUPSUnsupportedProxiableUUID(bytes32)": [
        {
          "details": "The storage `slot` is unsupported as a UUID."
        }
      ]
    },
    "events": {
      "Approval(address,address,uint256)": {
        "details": "Emitted when the allowance of a `spender` for an `owner` is set by a call to {approve}. `value` is the new allowance."
      },
      "Initialized(uint64)": {
        "details": "Triggered when the contract has been initialized or reinitialized."
      },
      "Paused(address)": {
        "details": "Emitted when the pause is triggered by `account`."
      },
      "Transfer(address,address,uint256)": {
        "details": "Emitted when `value` tokens are moved from one account (`from`) to another (`to`). Note that `value` may be zero."
      },
      "Unpaused(address)": {
        "details": "Emitted when the pause is lifted by `account`."
      },
      "Upgraded(address)": {
        "details": "Emitted when the implementation is upgraded."
      }
    },
    "kind": "dev",
    "methods": {
      "allowance(address,address)": {
        "details": "Returns the remaining number of tokens that `spender` will be allowed to spend on behalf of `owner` through {transferFrom}. This is zero by default. This value changes when {approve} or {transferFrom} are called."
      },
      "approve(address,uint256)": {
        "details": "See {IERC20-approve}. NOTE: If `value` is the maximum `uint256`, the allowance is not updated on `transferFrom`. This is semantically equivalent to an infinite approval. Requirements: - `spender` cannot be the zero address."
      },
      "balanceOf(address)": {
        "details": "Returns the value of tokens owned by `account`."
      },
      "buy(uint256,uint256,bytes[])": {
        "details": "",
        "params": {
          "minTokenAmount": "",
          "updateData": "",
          "usdtAmount": "USDT"
        }
      },
      "constructor": {
        "custom:oz-upgrades-unsafe-allow": "constructor"
      },
      "decimals()": {
        "details": "Returns the number of decimals used to get its user representation. For example, if `decimals` equals `2`, a balance of `505` tokens should be displayed to a user as `5.05` (`505 / 10 ** 2`). Tokens usually opt for a value of 18, imitating the relationship between Ether and Wei. This is the default value returned by this function, unless it's overridden. NOTE: This information is only used for _display_ purposes: it in no way affects any of the arithmetic of the contract, including {IERC20-balanceOf} and {IERC20-transfer}."
      },
      "emergencyWithdrawToken(uint256)": {
        "details": ""
      },
      "getBuyEstimate(uint256)": {
        "details": ""
      },
      "getSellEstimate(uint256)": {
        "details": ""
      },
      "getStockPrice()": {
        "details": ""
      },
      "injectTokens(uint256)": {
        "details": ""
      },
      "mint(uint256)": {
        "details": " - owner"
      },
      "name()": {
        "details": "Returns the name of the token."
      },
      "owner()": {
        "details": "Returns the address of the current owner."
      },
      "pause()": {
        "details": "/"
      },
      "paused()": {
        "details": "Returns true if the contract is paused, and false otherwise."
      },
      "proxiableUUID()": {
        "details": "Implementation of the ERC-1822 {proxiableUUID} function. This returns the storage slot used by the implementation. It is used to validate the implementation's compatibility when performing an upgrade. IMPORTANT: A proxy pointing at a proxiable contract should not be considered proxiable itself, because this risks bricking a proxy that upgrades to it, by delegating to itself until out of gas. Thus it is critical that this function revert if invoked through a proxy. This is guaranteed by the `notDelegated` modifier."
      },
      "renounceOwnership()": {
        "details": "Leaves the contract without owner. It will not be possible to call `onlyOwner` functions. Can only be called by the current owner. NOTE: Renouncing ownership will leave the contract without an owner, thereby disabling any functionality that is only available to the owner."
      },
      "sell(uint256,uint256,bytes[])": {
        "details": "",
        "params": {
          "minUsdtAmount": "USDT",
          "tokenAmount": "",
          "updateData": ""
        }
      },
      "setFeeReceiver(address)": {
        "details": ""
      },
      "setTradeParameters(uint256,uint256,uint256)": {
        "details": ""
      },
      "symbol()": {
        "details": "Returns the symbol of the token, usually a shorter version of the name."
      },
      "totalSupply()": {
        "details": "Returns the value of tokens in existence."
      },
      "transfer(address,uint256)": {
        "details": "See {IERC20-transfer}. Requirements: - `to` cannot be the zero address. - the caller must have a balance of at least `value`."
      },
      "transferFrom(address,address,uint256)": {
        "details": "See {IERC20-transferFrom}. Skips emitting an {Approval} event indicating an allowance update. This is not required by the ERC. See {xref-ERC20-_approve-address-address-uint256-bool-}[_approve]. NOTE: Does not update the allowance if the current allowance is the maximum `uint256`. Requirements: - `from` and `to` cannot be the zero address. - `from` must have a balance of at least `value`. - the caller must have allowance for ``from``'s tokens of at least `value`."
      },
      "transferOwnership(address)": {
        "details": "Transfers ownership of the contract to a new account (`newOwner`). Can only be called by the current owner."
      },
      "updateAndGetStockPrice(bytes[])": {
        "details": "",
        "params": {
          "updateData": ""
        },
        "returns": {
          "maxPrice": "",
          "minPrice": "",
          "price": "",
          "publishTime": ""
        }
      },
      "upgradeToAndCall(address,bytes)": {
        "custom:oz-upgrades-unsafe-allow-reachable": "delegatecall",
        "details": "Upgrade the implementation of the proxy to `newImplementation`, and subsequently execute the function call encoded in `data`. Calls {_authorizeUpgrade}. Emits an {Upgraded} event."
      }
    },
    "title": "StockToken - ",
    "version": 1
  },
  "userdoc": {
    "kind": "user",
    "methods": {
      "getBuyEstimate(uint256)": {
        "notice": "buy"
      },
      "getSellEstimate(uint256)": {
        "notice": "sell"
      },
      "getStockPrice()": {
        "notice": "updateAndGetStockPrice"
      }
    },
    "version": 1
  },
  "storageLayout": {
    "storage": [
      {
        "astId": 4903,
        "contract": "contracts/StockToken.sol:StockToken",
        "label": "oracleAggregator",
        "offset": 0,
        "slot": "0",
        "type": "t_contract(OracleAggregator)4877"
      },
      {
        "astId": 4906,
        "contract": "contracts/StockToken.sol:StockToken",
        "label": "usdtToken",
        "offset": 0,
        "slot": "1",
        "type": "t_contract(IERC20)2883"
      },
      {
        "astId": 4908,
        "contract": "contracts/StockToken.sol:StockToken",
        "label": "stockSymbol",
        "offset": 0,
        "slot": "2",
        "type": "t_string_storage"
      },
      {
        "astId": 4910,
        "contract": "contracts/StockToken.sol:StockToken",
        "label": "minTradeAmount",
        "offset": 0,
        "slot": "3",
        "type": "t_uint256"
      },
      {
        "astId": 4912,
        "contract": "contracts/StockToken.sol:StockToken",
        "label": "maxSlippage",
        "offset": 0,
        "slot": "4",
        "type": "t_uint256"
      },
      {
        "astId": 4914,
        "contract": "contracts/StockToken.sol:StockToken",
        "label": "tradeFeeRate",
        "offset": 0,
        "slot": "5",
        "type": "t_uint256"
      },
      {
        "astId": 4916,
        "contract": "contracts/StockToken.sol:StockToken",
        "label": "feeReceiver",
        "offset": 0,
        "slot": "6",
        "type": "t_address"
      }
    ],
    "types": {
      "t_address": {
        "encoding": "inplace",
        "label": "address",
        "numberOfBytes": "20"
      },
      "t_contract(IERC20)2883": {
        "encoding": "inplace",
        "label": "contract IERC20",
        "numberOfBytes": "20"
      },
      "t_contract(OracleAggregator)4877": {
        "encoding": "inplace",
        "label": "contract OracleAggregator",
        "numberOfBytes": "20"
      },
      "t_string_storage": {
        "encoding": "bytes",
        "label": "string",
        "numberOfBytes": "32"
      },
      "t_uint256": {
        "encoding": "inplace",
        "label": "uint256",
        "numberOfBytes": "32"
      }
    }
  }
}