{
  "address": "0x7FF9CF76D64fD560cAC05CA433Ca90e34259e6B5",
  "abi": [
    {
      "inputs": [
        {
          "internalType": "address",
          "name": "target",
          "type": "address"
        }
      ],
      "name": "AddressEmptyCode",
      "type": "error"
    },
    {
      "inputs": [
        {
          "internalType": "address",
          "name": "implementation",
          "type": "address"
        }
      ],
      "name": "ERC1967InvalidImplementation",
      "type": "error"
    },
    {
      "inputs": [],
      "name": "ERC1967NonPayable",
      "type": "error"
    },
    {
      "inputs": [],
      "name": "FailedCall",
      "type": "error"
    },
    {
      "inputs": [],
      "name": "InvalidInitialization",
      "type": "error"
    },
    {
      "inputs": [],
      "name": "NotInitializing",
      "type": "error"
    },
    {
      "inputs": [
        {
          "internalType": "address",
          "name": "owner",
          "type": "address"
        }
      ],
      "name": "OwnableInvalidOwner",
      "type": "error"
    },
    {
      "inputs": [
        {
          "internalType": "address",
          "name": "account",
          "type": "address"
        }
      ],
      "name": "OwnableUnauthorizedAccount",
      "type": "error"
    },
    {
      "inputs": [],
      "name": "UUPSUnauthorizedCallContext",
      "type": "error"
    },
    {
      "inputs": [
        {
          "internalType": "bytes32",
          "name": "slot",
          "type": "bytes32"
        }
      ],
      "name": "UUPSUnsupportedProxiableUUID",
      "type": "error"
    },
    {
      "anonymous": false,
      "inputs": [
        {
          "indexed": false,
          "internalType": "address",
          "name": "newImplementation",
          "type": "address"
        }
      ],
      "name": "ImplementationUpdated",
      "type": "event"
    },
    {
      "anonymous": false,
      "inputs": [
        {
          "indexed": false,
          "internalType": "uint64",
          "name": "version",
          "type": "uint64"
        }
      ],
      "name": "Initialized",
      "type": "event"
    },
    {
      "anonymous": false,
      "inputs": [
        {
          "indexed": false,
          "internalType": "address",
          "name": "newOracle",
          "type": "address"
        }
      ],
      "name": "OracleUpdated",
      "type": "event"
    },
    {
      "anonymous": false,
      "inputs": [
        {
          "indexed": true,
          "internalType": "address",
          "name": "previousOwner",
          "type": "address"
        },
        {
          "indexed": true,
          "internalType": "address",
          "name": "newOwner",
          "type": "address"
        }
      ],
      "name": "OwnershipTransferred",
      "type": "event"
    },
    {
      "anonymous": false,
      "inputs": [
        {
          "indexed": true,
          "internalType": "address",
          "name": "tokenAddress",
          "type": "address"
        },
        {
          "indexed": false,
          "internalType": "string",
          "name": "name",
          "type": "string"
        },
        {
          "indexed": false,
          "internalType": "string",
          "name": "symbol",
          "type": "string"
        }
      ],
      "name": "TokenCreated",
      "type": "event"
    },
    {
      "anonymous": false,
      "inputs": [
        {
          "indexed": true,
          "internalType": "address",
          "name": "implementation",
          "type": "address"
        }
      ],
      "name": "Upgraded",
      "type": "event"
    },
    {
      "inputs": [],
      "name": "UPGRADE_INTERFACE_VERSION",
      "outputs": [
        {
          "internalType": "string",
          "name": "",
          "type": "string"
        }
      ],
      "stateMutability": "view",
      "type": "function"
    },
    {
      "inputs": [
        {
          "internalType": "uint256",
          "name": "",
          "type": "uint256"
        }
      ],
      "name": "allTokens",
      "outputs": [
        {
          "internalType": "address",
          "name": "",
          "type": "address"
        }
      ],
      "stateMutability": "view",
      "type": "function"
    },
    {
      "inputs": [
        {
          "internalType": "string",
          "name": "name",
          "type": "string"
        },
        {
          "internalType": "string",
          "name": "symbol",
          "type": "string"
        },
        {
          "internalType": "uint256",
          "name": "initialSupply",
          "type": "uint256"
        }
      ],
      "name": "createToken",
      "outputs": [
        {
          "internalType": "address",
          "name": "",
          "type": "address"
        }
      ],
      "stateMutability": "nonpayable",
      "type": "function"
    },
    {
      "inputs": [],
      "name": "getAllTokens",
      "outputs": [
        {
          "internalType": "address[]",
          "name": "",
          "type": "address[]"
        }
      ],
      "stateMutability": "view",
      "type": "function"
    },
    {
      "inputs": [
        {
          "internalType": "string",
          "name": "symbol",
          "type": "string"
        }
      ],
      "name": "getTokenAddress",
      "outputs": [
        {
          "internalType": "address",
          "name": "",
          "type": "address"
        }
      ],
      "stateMutability": "view",
      "type": "function"
    },
    {
      "inputs": [
        {
          "internalType": "address",
          "name": "_oracleAggregator",
          "type": "address"
        },
        {
          "internalType": "address",
          "name": "_stockTokenImplementation",
          "type": "address"
        },
        {
          "internalType": "address",
          "name": "_usdtTokenAddress",
          "type": "address"
        }
      ],
      "name": "initialize",
      "outputs": [],
      "stateMutability": "nonpayable",
      "type": "function"
    },
    {
      "inputs": [],
      "name": "oracleAggregator",
      "outputs": [
        {
          "internalType": "address",
          "name": "",
          "type": "address"
        }
      ],
      "stateMutability": "view",
      "type": "function"
    },
    {
      "inputs": [],
      "name": "owner",
      "outputs": [
        {
          "internalType": "address",
          "name": "",
          "type": "address"
        }
      ],
      "stateMutability": "view",
      "type": "function"
    },
    {
      "inputs": [],
      "name": "proxiableUUID",
      "outputs": [
        {
          "internalType": "bytes32",
          "name": "",
          "type": "bytes32"
        }
      ],
      "stateMutability": "view",
      "type": "function"
    },
    {
      "inputs": [],
      "name": "renounceOwnership",
      "outputs": [],
      "stateMutability": "nonpayable",
      "type": "function"
    },
    {
      "inputs": [
        {
          "internalType": "address",
          "name": "newOracle",
          "type": "address"
        }
      ],
      "name": "setOracleAggregator",
      "outputs": [],
      "stateMutability": "nonpayable",
      "type": "function"
    },
    {
      "inputs": [
        {
          "internalType": "address",
          "name": "newImplementation",
          "type": "address"
        }
      ],
      "name": "setStockTokenImplementation",
      "outputs": [],
      "stateMutability": "nonpayable",
      "type": "function"
    },
    {
      "inputs": [
        {
          "internalType": "address",
          "name": "newUSDTTokenAddress",
          "type": "address"
        }
      ],
      "name": "setUSDTTokenAddress",
      "outputs": [],
      "stateMutability": "nonpayable",
      "type": "function"
    },
    {
      "inputs": [],
      "name": "stockTokenImplementation",
      "outputs": [
        {
          "internalType": "address",
          "name": "",
          "type": "address"
        }
      ],
      "stateMutability": "view",
      "type": "function"
    },
    {
      "inputs": [
        {
          "internalType": "string",
          "name": "",
          "type": "string"
        }
      ],
      "name": "tokenBySymbol",
      "outputs": [
        {
          "internalType": "address",
          "name": "",
          "type": "address"
        }
      ],
      "stateMutability": "view",
      "type": "function"
    },
    {
      "inputs": [
        {
          "internalType": "address",
          "name": "newOwner",
          "type": "address"
        }
      ],
      "name": "transferOwnership",
      "outputs": [],
      "stateMutability": "nonpayable",
      "type": "function"
    },
    {
      "inputs": [
        {
          "internalType": "address",
          "name": "newImplementation",
          "type": "address"
        },
        {
          "internalType": "bytes",
          "name": "data",
          "type": "bytes"
        }
      ],
      "name": "upgradeToAndCall",
      "outputs": [],
      "stateMutability": "payable",
      "type": "function"
    },
    {
      "inputs": [],
      "name": "usdtTokenAddress",
      "outputs": [
        {
          "internalType": "address",
          "name": "",
          "type": "address"
        }
      ],
      "stateMutability": "view",
      "type": "function"
    }
  ],
  "transactionHash": "0x2fd9dc13f2359d95d131f137444421cec62ce87ad364a29bb505bd94c880e728",
  "args": [],
  "numDeployments": 1,
  "solcInputHash": "d27bd645ed95b2a25e0c5504903a8c5a",
  "bytecode": "0x60a06040523060805234801561001457600080fd5b506080516119e161003e60003960008181610c7a01528181610ca40152610e5701526119e16000f3fe6080604052600436106200011f5760003560e01c80638dffe3f411620000a1578063b3a842ff116200006c578063b3a842ff146200033b578063c0c53b8b1462000380578063c409123614620003a5578063f1ab341514620003ca578063f2fde38b14620003ef57600080fd5b80638dffe3f414620002905780639d741e5d14620002b2578063a8940d3914620002d4578063ad3cb1cc14620002f957600080fd5b806352d1902d11620000ee57806352d1902d14620001c85780635b06053014620001ef578063634282af1462000214578063715018a614620002395780638da5cb5b146200025157600080fd5b8063263bcc7914620001245780632a5c792a14620001635780634f1ef286146200018a57806352173ba814620001a3575b600080fd5b3480156200013157600080fd5b5060035462000146906001600160a01b031681565b6040516001600160a01b0390911681526020015b60405180910390f35b3480156200017057600080fd5b506200017b62000414565b6040516200015a919062001176565b620001a16200019b36600462001275565b62000478565b005b348015620001b057600080fd5b50620001a1620001c2366004620012de565b6200049d565b348015620001d557600080fd5b50620001e062000525565b6040519081526020016200015a565b348015620001fc57600080fd5b50620001466200020e3660046200131f565b62000545565b3480156200022157600080fd5b50620001466200023336600462001393565b620008f4565b3480156200024657600080fd5b50620001a16200091f565b3480156200025e57600080fd5b507f9016d09d72d40fdae2fd8ceac6b6234c7706214fd39c1cd1e609a0528c199300546001600160a01b031662000146565b3480156200029d57600080fd5b5060025462000146906001600160a01b031681565b348015620002bf57600080fd5b5060045462000146906001600160a01b031681565b348015620002e157600080fd5b50620001a1620002f3366004620012de565b62000937565b3480156200030657600080fd5b506200032c604051806040016040528060058152602001640352e302e360dc1b81525081565b6040516200015a919062001401565b3480156200034857600080fd5b50620001466200035a36600462001416565b80516020818301810180516000825292820191909301209152546001600160a01b031681565b3480156200038d57600080fd5b50620001a16200039f36600462001457565b620009ee565b348015620003b257600080fd5b5062000146620003c436600462001416565b62000b4f565b348015620003d757600080fd5b50620001a1620003e9366004620012de565b62000b81565b348015620003fc57600080fd5b50620001a16200040e366004620012de565b62000c2b565b606060018054806020026020016040519081016040528092919081815260200182805480156200046e57602002820191906000526020600020905b81546001600160a01b031681526001909101906020018083116200044f575b5050505050905090565b6200048262000c6f565b6200048d8262000d18565b62000499828262000d22565b5050565b620004a762000dee565b6001600160a01b038116620005035760405162461bcd60e51b815260206004820152601a60248201527f496e76616c6964205553445420746f6b656e206164647265737300000000000060448201526064015b60405180910390fd5b600480546001600160a01b0319166001600160a01b0392909216919091179055565b60006200053162000e4c565b506000805160206200198c83398151915290565b60006200055162000dee565b6000845111620005a45760405162461bcd60e51b815260206004820152601a60248201527f546f6b656e206e616d652063616e6e6f7420626520656d7074790000000000006044820152606401620004fa565b6000835111620005f75760405162461bcd60e51b815260206004820152601c60248201527f546f6b656e2073796d626f6c2063616e6e6f7420626520656d707479000000006044820152606401620004fa565b60008211620006575760405162461bcd60e51b815260206004820152602560248201527f496e697469616c20737570706c79206d75737420626520677265617465722074604482015264068616e20360dc1b6064820152608401620004fa565b60006001600160a01b0316600084604051620006749190620014a1565b908152604051908190036020019020546001600160a01b031614620006d35760405162461bcd60e51b8152602060048201526014602482015273546f6b656e20616c72656164792065786973747360601b6044820152606401620004fa565b6003546001600160a01b0316620007265760405162461bcd60e51b8152602060048201526016602482015275125b5c1b195b595b9d185d1a5bdb881b9bdd081cd95d60521b6044820152606401620004fa565b6004546001600160a01b0316620007805760405162461bcd60e51b815260206004820152601a60248201527f5553445420746f6b656e2061646472657373206e6f74207365740000000000006044820152606401620004fa565b600254600454604051600092620007b29288928892889233926001600160a01b039283169290911690602401620014bf565b60408051601f198184030181529181526020820180516001600160e01b0316631bbdd89b60e21b17905260035490519192506000916001600160a01b03909116908390620008009062001168565b6200080d92919062001519565b604051809103906000f0801580156200082a573d6000803e3d6000fd5b509050600081905080600087604051620008459190620014a1565b90815260405190819003602001812080546001600160a01b039384166001600160a01b0319918216179091556001805480820182556000919091527fb10e2d527612073b26eecdfd717e6a320cf44b4afac2b0732d9fcbe2b7fa0cf601805493851693909116831790557fffc04f682c7b287e4b552dacd4b833d7c33dc0549cd6da84388408e4830c056290620008e0908a908a906200153f565b60405180910390a2925050505b9392505050565b600181815481106200090557600080fd5b6000918252602090912001546001600160a01b0316905081565b6200092962000dee565b62000935600062000e96565b565b6200094162000dee565b6001600160a01b038116620009995760405162461bcd60e51b815260206004820152601e60248201527f496e76616c696420696d706c656d656e746174696f6e206164647265737300006044820152606401620004fa565b600380546001600160a01b0319166001600160a01b0383169081179091556040519081527f310ba5f1d2ed074b51e2eccd052a47ae9ab7c6b800d1fca3db3999d6a592ca03906020015b60405180910390a150565b7ff0c57e16840df040f15088dc2f81fe391c3923bec73e23a9662efc9c229c6a008054600160401b810460ff16159067ffffffffffffffff1660008115801562000a355750825b905060008267ffffffffffffffff16600114801562000a535750303b155b90508115801562000a62575080155b1562000a815760405163f92ee8a960e01b815260040160405180910390fd5b845467ffffffffffffffff19166001178555831562000aac57845460ff60401b1916600160401b1785555b62000ab73362000f07565b62000ac162000f1c565b600280546001600160a01b03808b166001600160a01b031992831617909255600380548a84169083161790556004805492891692909116919091179055831562000b4557845460ff60401b19168555604051600181527fc7f505b2f371ae2175ee4913f4499e1f2633a7b5936321eed1cdaeb6115181d29060200160405180910390a15b5050505050505050565b6000808260405162000b629190620014a1565b908152604051908190036020019020546001600160a01b031692915050565b62000b8b62000dee565b6001600160a01b03811662000bdc5760405162461bcd60e51b8152602060048201526016602482015275496e76616c6964206f7261636c65206164647265737360501b6044820152606401620004fa565b600280546001600160a01b0319166001600160a01b0383169081179091556040519081527f3df77beb5db05fcdd70a30fc8adf3f83f9501b68579455adbd100b818094039490602001620009e3565b62000c3562000dee565b6001600160a01b03811662000c6157604051631e4fbdf760e01b815260006004820152602401620004fa565b62000c6c8162000e96565b50565b306001600160a01b037f000000000000000000000000000000000000000000000000000000000000000016148062000cf957507f00000000000000000000000000000000000000000000000000000000000000006001600160a01b031662000ced6000805160206200198c833981519152546001600160a01b031690565b6001600160a01b031614155b15620009355760405163703e46dd60e11b815260040160405180910390fd5b62000c6c62000dee565b816001600160a01b03166352d1902d6040518163ffffffff1660e01b8152600401602060405180830381865afa92505050801562000d7f575060408051601f3d908101601f1916820190925262000d7c9181019062001568565b60015b62000da957604051634c9c8ce360e01b81526001600160a01b0383166004820152602401620004fa565b6000805160206200198c833981519152811462000ddd57604051632a87526960e21b815260048101829052602401620004fa565b62000de9838362000f26565b505050565b3362000e217f9016d09d72d40fdae2fd8ceac6b6234c7706214fd39c1cd1e609a0528c199300546001600160a01b031690565b6001600160a01b031614620009355760405163118cdaa760e01b8152336004820152602401620004fa565b306001600160a01b037f00000000000000000000000000000000000000000000000000000000000000001614620009355760405163703e46dd60e11b815260040160405180910390fd5b7f9016d09d72d40fdae2fd8ceac6b6234c7706214fd39c1cd1e609a0528c19930080546001600160a01b031981166001600160a01b03848116918217845560405192169182907f8be0079c531659141344cd1fd0a4f28419497f9722a3daafe3b4186f6b6457e090600090a3505050565b62000f1162000f83565b62000c6c8162000fcd565b6200093562000f83565b62000f318262000fd7565b6040516001600160a01b038316907fbc7cd75a20ee27fd9adebab32041f755214dbc6bffa90cc0225b39da2e5c2d3b90600090a280511562000f795762000de982826200103f565b62000499620010bb565b7ff0c57e16840df040f15088dc2f81fe391c3923bec73e23a9662efc9c229c6a0054600160401b900460ff166200093557604051631afcd79f60e31b815260040160405180910390fd5b62000c3562000f83565b806001600160a01b03163b6000036200100f57604051634c9c8ce360e01b81526001600160a01b0382166004820152602401620004fa565b6000805160206200198c83398151915280546001600160a01b0319166001600160a01b0392909216919091179055565b6060600080846001600160a01b0316846040516200105e9190620014a1565b600060405180830381855af49150503d80600081146200109b576040519150601f19603f3d011682016040523d82523d6000602084013e620010a0565b606091505b5091509150620010b2858383620010db565b95945050505050565b3415620009355760405163b398979f60e01b815260040160405180910390fd5b606082620010f457620010ee826200113f565b620008ed565b81511580156200110c57506001600160a01b0384163b155b156200113757604051639996b31560e01b81526001600160a01b0385166004820152602401620004fa565b5080620008ed565b8051156200114f57805160208201fd5b60405163d6bda27560e01b815260040160405180910390fd5b610409806200158383390190565b6020808252825182820181905260009190848201906040850190845b81811015620011b95783516001600160a01b03168352928401929184019160010162001192565b50909695505050505050565b80356001600160a01b0381168114620011dd57600080fd5b919050565b634e487b7160e01b600052604160045260246000fd5b600067ffffffffffffffff80841115620012165762001216620011e2565b604051601f8501601f19908116603f01168101908282118183101715620012415762001241620011e2565b816040528093508581528686860111156200125b57600080fd5b858560208301376000602087830101525050509392505050565b600080604083850312156200128957600080fd5b6200129483620011c5565b9150602083013567ffffffffffffffff811115620012b157600080fd5b8301601f81018513620012c357600080fd5b620012d485823560208401620011f8565b9150509250929050565b600060208284031215620012f157600080fd5b620008ed82620011c5565b600082601f8301126200130e57600080fd5b620008ed83833560208501620011f8565b6000806000606084860312156200133557600080fd5b833567ffffffffffffffff808211156200134e57600080fd5b6200135c87838801620012fc565b945060208601359150808211156200137357600080fd5b506200138286828701620012fc565b925050604084013590509250925092565b600060208284031215620013a657600080fd5b5035919050565b60005b83811015620013ca578181015183820152602001620013b0565b50506000910152565b60008151808452620013ed816020860160208601620013ad565b601f01601f19169290920160200192915050565b602081526000620008ed6020830184620013d3565b6000602082840312156200142957600080fd5b813567ffffffffffffffff8111156200144157600080fd5b6200144f84828501620012fc565b949350505050565b6000806000606084860312156200146d57600080fd5b6200147884620011c5565b92506200148860208501620011c5565b91506200149860408501620011c5565b90509250925092565b60008251620014b5818460208701620013ad565b9190910192915050565b60c081526000620014d460c0830189620013d3565b8281036020840152620014e88189620013d3565b604084019790975250506001600160a01b039384166060820152918316608083015290911660a09091015292915050565b6001600160a01b03831681526040602082018190526000906200144f90830184620013d3565b604081526000620015546040830185620013d3565b8281036020840152620010b28185620013d3565b6000602082840312156200157b57600080fd5b505191905056fe608060405260405161040938038061040983398101604081905261002291610267565b61002c8282610033565b5050610351565b61003c82610092565b6040516001600160a01b038316907fbc7cd75a20ee27fd9adebab32041f755214dbc6bffa90cc0225b39da2e5c2d3b90600090a280511561008657610081828261010e565b505050565b61008e610185565b5050565b806001600160a01b03163b6000036100cd57604051634c9c8ce360e01b81526001600160a01b03821660048201526024015b60405180910390fd5b7f360894a13ba1a3210667c828492db98dca3e2076cc3735a920a3ca505d382bbc80546001600160a01b0319166001600160a01b0392909216919091179055565b6060600080846001600160a01b03168460405161012b9190610335565b600060405180830381855af49150503d8060008114610166576040519150601f19603f3d011682016040523d82523d6000602084013e61016b565b606091505b50909250905061017c8583836101a6565b95945050505050565b34156101a45760405163b398979f60e01b815260040160405180910390fd5b565b6060826101bb576101b682610205565b6101fe565b81511580156101d257506001600160a01b0384163b155b156101fb57604051639996b31560e01b81526001600160a01b03851660048201526024016100c4565b50805b9392505050565b80511561021457805160208201fd5b60405163d6bda27560e01b815260040160405180910390fd5b634e487b7160e01b600052604160045260246000fd5b60005b8381101561025e578181015183820152602001610246565b50506000910152565b6000806040838503121561027a57600080fd5b82516001600160a01b038116811461029157600080fd5b60208401519092506001600160401b03808211156102ae57600080fd5b818501915085601f8301126102c257600080fd5b8151818111156102d4576102d461022d565b604051601f8201601f19908116603f011681019083821181831017156102fc576102fc61022d565b8160405282815288602084870101111561031557600080fd5b610326836020830160208801610243565b80955050505050509250929050565b60008251610347818460208701610243565b9190910192915050565b60aa8061035f6000396000f3fe6080604052600a600c565b005b60186014601a565b6051565b565b6000604c7f360894a13ba1a3210667c828492db98dca3e2076cc3735a920a3ca505d382bbc546001600160a01b031690565b905090565b3660008037600080366000845af43d6000803e808015606f573d6000f35b3d6000fdfea26469706673582212202e1b19a91c419a61dca383dfcb3f2e420034a4a33aa4e8071eb48225765a45e864736f6c63430008160033360894a13ba1a3210667c828492db98dca3e2076cc3735a920a3ca505d382bbca2646970667358221220c87bfa71ddf225c91ec285dae40cd5d5b3025735d066d84ca85c26b3b9138f1a64736f6c63430008160033",
  "devdoc": {
    "errors": {
      "AddressEmptyCode(address)": [
        {
          "details": "There's no code at `target` (it is not a contract)."
        }
      ],
      "ERC1967InvalidImplementation(address)": [
        {
          "details": "The `implementation` of the proxy is invalid."
        }
      ],
      "ERC1967NonPayable()": [
        {
          "details": "An upgrade function sees `msg.value > 0` that may be lost."
        }
      ],
      "FailedCall()": [
        {
          "details": "A call to an address target failed. The target may have reverted."
        }
      ],
      "InvalidInitialization()": [
        {
          "details": "The contract is already initialized."
        }
      ],
      "NotInitializing()": [
        {
          "details": "The contract is not initializing."
        }
      ],
      "OwnableInvalidOwner(address)": [
        {
          "details": "The owner is not a valid owner account. (eg. `address(0)`)"
        }
      ],
      "OwnableUnauthorizedAccount(address)": [
        {
          "details": "The caller account is not authorized to perform an operation."
        }
      ],
      "UUPSUnauthorizedCallContext()": [
        {
          "details": "The call is from an unauthorized context."
        }
      ],
      "UUPSUnsupportedProxiableUUID(bytes32)": [
        {
          "details": "The storage `slot` is unsupported as a UUID."
        }
      ]
    },
    "events": {
      "Initialized(uint64)": {
        "details": "Triggered when the contract has been initialized or reinitialized."
      },
      "Upgraded(address)": {
        "details": "Emitted when the implementation is upgraded."
      }
    },
    "kind": "dev",
    "methods": {
      "owner()": {
        "details": "Returns the address of the current owner."
      },
      "proxiableUUID()": {
        "details": "Implementation of the ERC-1822 {proxiableUUID} function. This returns the storage slot used by the implementation. It is used to validate the implementation's compatibility when performing an upgrade. IMPORTANT: A proxy pointing at a proxiable contract should not be considered proxiable itself, because this risks bricking a proxy that upgrades to it, by delegating to itself until out of gas. Thus it is critical that this function revert if invoked through a proxy. This is guaranteed by the `notDelegated` modifier."
      },
      "renounceOwnership()": {
        "details": "Leaves the contract without owner. It will not be possible to call `onlyOwner` functions. Can only be called by the current owner. NOTE: Renouncing ownership will leave the contract without an owner, thereby disabling any functionality that is only available to the owner."
      },
      "transferOwnership(address)": {
        "details": "Transfers ownership of the contract to a new account (`newOwner`). Can only be called by the current owner."
      },
      "upgradeToAndCall(address,bytes)": {
        "custom:oz-upgrades-unsafe-allow-reachable": "delegatecall",
        "details": "Upgrade the implementation of the proxy to `newImplementation`, and subsequently execute the function call encoded in `data`. Calls {_authorizeUpgrade}. Emits an {Upgraded} event."
      }
    },
    "version": 1
  },
  "userdoc": {
    "kind": "user",
    "methods": {},
    "version": 1
  },
  "storageLayout": {
    "storage": [
      {
        "astId": 5749,
        "contract": "contracts/TokenFactory.sol:TokenFactory",
        "label": "tokenBySymbol",
        "offset": 0,
        "slot": "0",
        "type": "t_mapping(t_string_memory_ptr,t_address)"
      },
      {
        "astId": 5752,
        "contract": "contracts/TokenFactory.sol:TokenFactory",
        "label": "allTokens",
        "offset": 0,
        "slot": "1",
        "type": "t_array(t_address)dyn_storage"
      },
      {
        "astId": 5754,
        "contract": "contracts/TokenFactory.sol:TokenFactory",
        "label": "oracleAggregator",
        "offset": 0,
        "slot": "2",
        "type": "t_address"
      },
      {
        "astId": 5756,
        "contract": "contracts/TokenFactory.sol:TokenFactory",
        "label": "stockTokenImplementation",
        "offset": 0,
        "slot": "3",
        "type": "t_address"
      },
      {
        "astId": 5758,
        "contract": "contracts/TokenFactory.sol:TokenFactory",
        "label": "usdtTokenAddress",
        "offset": 0,
        "slot": "4",
        "type": "t_address"
      }
    ],
    "types": {
      "t_address": {
        "encoding": "inplace",
        "label": "address",
        "numberOfBytes": "20"
      },
      "t_array(t_address)dyn_storage": {
        "base": "t_address",
        "encoding": "dynamic_array",
        "label": "address[]",
        "numberOfBytes": "32"
      },
      "t_mapping(t_string_memory_ptr,t_address)": {
        "encoding": "mapping",
        "key": "t_string_memory_ptr",
        "label": "mapping(string => address)",
        "numberOfBytes": "32",
        "value": "t_address"
      },
      "t_string_memory_ptr": {
        "encoding": "bytes",
        "label": "string",
        "numberOfBytes": "32"
      }
    }
  }
}